:100000000C94EA040C9407050C9407050C9407055E
:100010000C9407050C9407050C9407050C94070530
:100020000C9407050C9407050C94FC0D0C946612B7
:100030000C9414180C9407050C9407050C940705F0
:100040000C9407050C9407050C9407050C94070500
:100050000C9407050C94D50E0C9407050C94070519
:100060000C9407050C9407050C9407050C940705E0
:100070000C9407050C9407050C9407050C940705D0
:100080000C9407050C9407050C9407050C940705C0
:100090000C9407050C9407050C9407050C940705B0
:1000A0000C9407050C9407050C94070501043230E5
:1000B000307C010128000101E301043230307C0072
:1000C0000000000000000000000000000000000030
:1000D0000000000000000000000000000000000020
:1000E000000000007E0F00D4FFFFFFC70000007873
:1000F00000000000000000002A2B28000000000083
:1001000000000000000000000000002900000000C6
:100110002C1E3420212224342627252E362D373834
:10012000271E1F202122232425263333362E37383D
:100130001F0405060708090A0B0C0D0E0F101112FB
:10014000131415161718191A1B1C1D2F3130232DC7
:10015000350405060708090A0B0C0D0E0F101112C5
:10016000131415161718191A1B1C1D2F3130354C76
:100170000102E20102E1660103E20103E100010282
:10018000E00102E1720103E00103E1000102E0018C
:1001900002E1700103E00103E1000102E0700103EC
:1001A000E0000102E0760103E0000102E0630103E8
:1001B000E0000102E0780103E00000000000A75D1C
:1001C000B45DB15DB35DAB5DB05DB25DA85DA95DD1
:1001D000AA5D0000000053005F00600061005C0049
:1001E0005D005E0059005A005B0000000000A75D42
:1001F0003E004300AF5DAC5DAD5DAE5DA85DA95D49
:10020000AA5D00000000005C00000000000000008B
:1002100000000000E400E500000000DA1281FFD9D0
:10022000F1DB20A4A62EAF00A0C000A1C800AED56F
:1002300080A83FD300408D14556E646566696E6575
:1002400064000053656C656374004272696768748A
:1002500000004750552000783036004350552000AC
:100260007830360000475055202500435055202552
:1002700000426F6F74004E65726400506173746564
:1002800000436F7079004375740052656661637452
:100290006F00436D64004F70656E00466F726D6154
:1002A0007400463130004635005363722054676C49
:1002B00000436F64650A00330032003100360035B8
:1002C0000034003900380037004E756D204C636BE8
:1002D000004E756D7061640A00506173746500436F
:1002E0006F70790043757400536E697000526964D1
:1002F0006572005673436F6465005461736B7300DD
:100300004F4253005465726D005363722054676C02
:10031000004D6163726F730A00000000000000026C
:100320000965650902005E61615E00143E41413E5F
:10033000143E222A223E001818181818183048486F
:100340000303007F55417F0E00324C736C46382A00
:100350001C7F1C2A000000000000000000000000BC
:10036000000000000000000000000000000000008D
:100370000000005A3CE73C5A007F3E1C1C08000865
:100380001C1C3E7F0014227F221400324C736C46EA
:100390003806097F017F00006689956A0060606009
:1003A00060600094A2FFA2940008047E040800107C
:1003B000207E2010002020FF202020080CFE0C08AA
:1003C000000000FF0000002020F870200020202006
:1003D00020202000207F20202000000000000000BE
:1003E000005F000000000700070000147F147F1466
:1003F00000242A7F2A12002313086462003649561B
:10040000205000000807030000001C2241000000EB
:1004100041221C00002A1C7F1C2A0008083E0808F4
:100420000000807030000008080808080000006024
:100430006000002010080402003E5149453E0000C3
:10044000427F4000007249494946002141494D33ED
:10045000001814127F10002745454539003C4A49D1
:100460004931004121110907003649494936004602
:100470004949291E0000001400000000403400001B
:100480000000081422410014141414140000412226
:100490001408000201590906003E415D594E007FD3
:1004A00009090A7C003E49494936003E4141414123
:1004B000007F4141413E003E49494941007F0909D1
:1004C0000901003E41415132007F0808087F0000C9
:1004D000413E4100002040413E01007F081422417E
:1004E000003F40404040007F021C027F007F040824
:1004F000107F003E4141413E007E09090906003E51
:100500004151215E007E0919294600264949493298
:100510000003017E0103003F4040403F001F204098
:10052000201F003F4038403F00631408146300035D
:100530000478040300215149454200007F414141B4
:1005400000020408102000004141417F0004020124
:100550000204004040404040000003070800002023
:1005600054547840007F2844443800384444442898
:1005700000384444287F0038545454180000087E42
:100580000902001824241C78007F08040478000065
:10059000447D4000002040403D00007F1028440082
:1005A0000000417F4000007C04780478007C08044F
:1005B0000478003844444438007C18242418001877
:1005C0002424187C007C0804040800485454542453
:1005D0000004043F4424003C4040207C001C204098
:1005E000201C003C4030403C004428102844004C73
:1005F0009090907C004464544C44000008364100C4
:100600000000007F000000004136080000020102E7
:100610000402003C2623263C0000000000000000ED
:100620000000C03E708078077880703EC0000000F7
:100630000000000000F8C000E01CE000C0F800006E
:1006400000000000000000F8C000E01CE000C0F85E
:100650000000000000080CFE0C08000000FF000075
:10066000002020F870200020202020202000207F63
:10067000202020000000000000000000000000001A
:10068000000000000000000000000000000000006A
:10069000000000000000000000000000000000005A
:1006A000000000000000000000000000000000004A
:1006B000000000000000000000000000000000003A
:1006C000000000000000000000000000000000002A
:1006D000000000000000000000000000000000E03A
:1006E000180671D8A8D8700070D8A8D8710618E07C
:1006F0000080601877D8A9DA710071DAA9D8771864
:1007000060800080601817A041A2110011A241A0D2
:1007100017186080000000000000000000000000CA
:1007200000000000000000000000000000000000C9
:1007300000000000000000000000000000000000B9
:1007400000000000000000000000000000000000A9
:100750000000000000000000000000000000000099
:100760000000000000000000000000000000000089
:100770000000000000000000000000000000000079
:100780000000000000000000000000000000000069
:100790000000000000000000000000000000000356
:1007A0000C1020204078407E4078402020100C0320
:1007B00000030C1020204078407E4078402020101C
:1007C0000C0300030C1021204078417E417840202A
:1007D00021100C03000000000000000000000000D9
:1007E0000000000000000000000000000000000009
:1007F00000000000000000000000000000000000F9
:1008000000000000000000000000000000000000E8
:1008100000000000000000000000000000000000D8
:1008200000000000000000000000000000000000C8
:1008300000000000000000000000000000000000B8
:1008400000000000000000000000000000000000A8
:1008500000000000000000000000AF00AE0501092C
:1008600002A10185020901A1000509190129081544
:10087000002501950875018102050109300931152E
:1008800081257F95027508810609381581257F9598
:100890000175088106050C0A38021581257F95012E
:1008A00075088106C0C005010980A10185031901F1
:1008B0002AB700150126B700950175108100C00503
:1008C0000C0901A101850419012AA002150126A025
:1008D00002950175108100C005010906A101850678
:1008E000050719E029E71500250195087501810222
:1008F0000507190029EF1500250195F07501810202
:1009000005081901290595057501910295017503E1
:100910009101C005010906A101050719E029E715A4
:100920000025019508750181029501750881010571
:1009300007190029FF150026FF009506750881009C
:1009400005081901290595057501910295017503A1
:100950009101C009023B00020100A0FA0904000055
:1009600001030101000921110100012240000705D6
:1009700081030800010904010001030000000921AE
:100980001101000122B600070582032000011201B7
:100990000002000000081D700100000101020001BA
:1009A000180376006F006900640070006100640045
:1009B00039007300310065000000140376006F00F9
:1009C000690064007400750078006900630000002D
:1009D0000403090411241FBECFEFDAE0DEBFCDBF50
:1009E00011E0A0E0B1E0E6E7FDE302C005900D9262
:1009F000AA38B107D9F726E0AAE8B1E001C01D92F4
:100A0000A039B207E1F70E943B180C94AF1E0C947A
:100A10000000E8EDF0E080818E7F80831092E2009C
:100A20001092DA001092E100A0EEB0E08C918160AB
:100A30008C9380818F77808319BCA7EDB0E08C9177
:100A40008E7F8C9380818F7E808310925E060895C6
:100A50002091E4003091E50095E6A9012091EC0099
:100A6000822F817020FF06C08091E80080FF06C0C1
:100A700080E008952091E80022FD1AC0809183064D
:100A8000882389F0853089F08091EB0085FD0FC0C7
:100A90002091E4003091E50042175307F9F291509C
:100AA000E1F684E0089582E0089583E0089581E00E
:100AB0000895EF92FF920F931F93CF937C018B01C8
:100AC0000E942805C82F811117C08091E80085FD7C
:100AD0000BC08091E8008E778093E8000E94280583
:100AE000882399F3C82F08C0F70181917F01809373
:100AF000F1000150110949F78C2FCF911F910F91EF
:100B0000FF90EF9008958091850687FF13C0809134
:100B1000E80082FF06C08091E8008B778093E800B0
:100B200004C0809183068111F2CF089580918306DD
:100B30008823D9F38091E80080FFF8CF8091E80006
:100B40008E77ECCF982F9093E900242F762F50E0EA
:100B5000891731F07091EC002091ED005091F00078
:100B600021FD07C09F5F973071F78093E90081E016
:100B700008953091EB003E7F3093EB003091ED0013
:100B80003D7F3093ED003091EB0031603093EB000E
:100B90007093EC002093ED005093F0002091EE0054
:100BA00027FDE0CF80E00895CF92DF92EF92FF9291
:100BB0000F931F93CF93DF93C8EDD0E088818F7E92
:100BC0008883E7EDF0E080818160808384E082BFEC
:100BD00081E080935E0688818E7F888302EE10E03C
:100BE000F80110821092DA0081EEC82ED12CF601A5
:100BF000108288818F778883888180688883888144
:100C00008F7D888319BC10928306109284061092FF
:100C100082061092810690EEE92EF12CF701808178
:100C20008B7F808388818160888342E060E080E000
:100C30000E94A205F60180818E7F8083F801808169
:100C400081608083808188608083F70180818E7FCE
:100C50008083888180618883DF91CF911F910F917C
:100C6000FF90EF90DF90CF900895FC0180918B066C
:100C700090918C0686179707A0F06115710529F4ED
:100C80009091E8009E779093E80090E061157105DF
:100C900051F4911108C08091E80082FF34C080E0D7
:100CA0000895BC01F2CF809183068823C1F185307D
:100CB000C1F18091E80083FD30C08091E80082FDA1
:100CC000EACF8091E80080FFE1CF8091F30020918E
:100CD000F200382F6115710519F02830310558F0F0
:100CE00091E02830310509F090E02091E8002E775E
:100CF0002093E800CBCF81918093F100615071097E
:100D00002F5F3F4FE7CF80918306882341F08530E6
:100D100041F08091E80083FFBECF81E0089582E03A
:100D2000089583E00895089580916006089587E707
:100D300097E7909301088093000888E19AE00FB646
:100D4000F894A895809360000FBE90936000FFCF49
:100D50002FB7F8946091550670915606809157060A
:100D6000909158062FBF0895209114012223C9F0B5
:100D70002091590627FF15C0E62FE695E695E695E2
:100D8000EE31D8F4E80FF92FF11D677021E030E063
:100D900001C0220F6A95EAF72095828128232283D9
:100DA0000895FC01329608962191621303C0DF0179
:100DB00011971C92E817F907B9F708952091520688
:100DC000309153062817390771F09093530680939A
:100DD0005206E0915006F0915106309721F00084C0
:100DE000F185E02D0994089520914E0630914F062B
:100DF0002817390771F090934F0680934E06E091C3
:100E00005006F0915106309721F00680F781E02DD1
:100E100009940895E0915006F0915106309721F021
:100E20000190F081E02D099480E0089520913D0229
:100E300036E0839FC0011124629F800D911D112413
:100E4000811524E0920714F090E080E0805C9D4FD3
:100E500090934706809346060895409139028D3E4F
:100E600059F480913A0287FF0DC010923A02411165
:100E70000BC01092310208C08E3E81F480913A027C
:100E800018169CF3442381F080913B0290913C0220
:100E9000892B09F05AC01092300208958F3E49F410
:100EA00047FFF0CF1092390280913A028111ECCFC6
:100EB000E0CF803F19F41416ACF3E4CF90913B02DD
:100EC000893F29F41916F4F610923B02DBCF8A3FD2
:100ED00019F497FFD7CFF8CF90913C028B3F29F4BC
:100EE00097FFD0CF10923C02CDCF8C3F19F419164A
:100EF000CCF3C8CF9FE0980F983090F4815F990BA6
:100F000021E030E0B90102C0660F771F8A95E2F751
:100F1000CB01809590913802892380933802B2CF1B
:100F20008D3F31F4809132028E7F80933202AACFBE
:100F30008E3F21F4809132028D7FF7CF8F3F09F0F1
:100F4000A1CF809132028B7FF0CF08958091320241
:100F500080FD16C081FD16C082FD16C08091300252
:100F60008823A1F0883280F428E0829FC0011124F8
:100F700068E270E00E943D1E862F672B39F00895CD
:100F800082E0089584E0089588E0089581E008955E
:100F90008091320280FD14C081FD14C082FD16C014
:100FA00080913102882381F08E3180F420E5829F88
:100FB000C00111246EE170E00E943D1E862F08954D
:100FC00084E1089588E2089588E0089580E5089511
:100FD0008D3E31F40E94C807819580933A020895AE
:100FE0008E3E19F40E94C807F8CF8F3E31F40E945C
:100FF000C8078195809339020895803F19F40E94B3
:10100000C807F8CF893F29F40E94A60780933B02C6
:1010100008958A3F21F40E94A6078195F7CF8B3F60
:1010200031F40E94A607819580933C0208958C3F7D
:1010300019F40E94A607F8CF9FE0980F983070F43B
:10104000815F990B21E030E001C0220F8A95EAF719
:1010500080913802822B8093380208958D3F31F4BD
:101060008091320281608093320208958E3F21F494
:10107000809132028260F7CF8F3FB9F780913202C0
:101080008460F1CF80E00895F894E82FE295EF7046
:10109000F0E031A1282F2F7081E090E001C0880F8F
:1010A0002A95EAF7982F9095932391A392A1892BE3
:1010B00082A3789408958238910591F1C0F5813327
:1010C000910509F490C028F58932910509F484C08E
:1010D0008A32910509F48EC0811520E5920708F047
:1010E000A6C0811540E4940708F02CC18F3B910500
:1010F00008F087C0883A910508F017C1853A910534
:1011000008F00AC18430910500F581309105E9F0BD
:101110003CC08533910509F458C089339105E1F647
:1011200020915906237089F080EE90E00895833E67
:10113000910571F158F4803E9105E9F0823E9105E8
:1011400059F62091590622FD1EC00895863E91054C
:1011500051F1873E910571F1843E910509F0BCCFB4
:1011600020915A0621FFF1CF8091590684FD0DC0D0
:1011700087EE90E008952091590620FD0FC130912F
:101180005A0630FFE2CF24FF0CC190E080E0DDCFB3
:101190002091590622FD08C130915A0630FDC4CF76
:1011A00024FFD3CFF2CF2091590623FFCECF24FDC9
:1011B000ECCFDECF2091590623FDF9C030915A06BD
:1011C00031FFEECF84EE90E008952091590625FF7F
:1011D000BCCF89E290E008952091590625FFB5CF54
:1011E00085E390E008952091590626FFAECF8AE26C
:1011F00090E008952091590626FFA7CF81E390E063
:1012000008958F3F910509F060F48D3E910508F037
:1012100097C09C01215E31092730310508F495CF34
:10122000B4CF811520E2920708F48FCFAECF81159D
:1012300043E5940740F5811522E5920708F08AC03E
:10124000811541E5940708F080C09C0164E0369563
:1012500027956A95E1F7922F9370282F269526956A
:10126000237040E2249F90011124392B482F4370B2
:1012700081E090E002C0880F991F4A95E2F7822B27
:10128000932B9C680895811529E59207F0F4811548
:1012900048E5940708F06FC0811524E5920708F02F
:1012A00074CFAC014370552721E030E002C0220F1B
:1012B000331F4A95E2F78695869540E2849FC001E8
:1012C0001124822B932B9A68089581154AE594077F
:1012D00008F05BCF282F2F704091590642FF05C0C0
:1012E00083FF4EC0282F2770246030915A0630FFAC
:1012F00007C0322F3871383009F048C0277F21608D
:1013000044FD277E34E0969587953A95E1F78F70F6
:10131000982F822F90690895855AE82FF0E0EE5CAF
:10132000FE4F808190E090640895885AE82FF0E0A5
:10133000EE0FFF1FEB5CFE4F808191819464089556
:10134000906508959F70906A0895982F8827816FFF
:10135000906A0895AC014370552721E030E002C047
:10136000220F331F4A95E2F78695869540E2849FC7
:10137000C001112484CF982F8827806F906A089528
:1013800082FFB3CF282F2B702860AFCF322F31715F
:10139000313009F0B5CF2E7F2860B2CF89E390E0DD
:1013A000089583EE90E0089582EE90E0089586EE31
:1013B00090E00895CF92DF92EF92FF920F931F93E8
:1013C000CF93DF93E090EA012091D301E22AC7E0B6
:1013D000D0E0F12C082F10E023E0929F000D111DAA
:1013E00011249CE0C92EDC2EC7010C2E02C095955D
:1013F00087950A94E2F780FD0DC02197A0F7D12CC4
:101400008D2DDF91CF911F910F91FF90EF90DF9085
:10141000CF900895CC9EF001CD9EF00D1124E00FE9
:10142000F11FEE0FFF1FE654FE4F859194910E942D
:101430005B08019711F3E4CFE92FEE0F9E0F890FA0
:10144000982F977086958695869523E0829FF00168
:101450001124E455FE4F50E040E080E0219130E05F
:10146000092E02C0369527950A94E2F7217033279A
:10147000042E01C0220F0A94EAF7822B4F5F5F4FC0
:101480004330510559F70895E92FEE0F9E0F890F4C
:10149000982F977041E001C0440F9A95EAF786951E
:1014A0008695869593E0899FF0011124E455FE4FBF
:1014B00030E020E070E05191DF011197CB01022E66
:1014C00002C0969587950A94E2F7817081958527E9
:1014D000842385278C932F5F3F4F2330310559F7A5
:1014E0000895982F92959F7011F0892F94E0282FDE
:1014F0002695269511F09E5F822F869509F09F5FB5
:10150000892F0895CF92DF92EF92FF920F931F934E
:10151000CF93DF936C017B0164E670E088E70E9463
:101520001C1DEC0197FD12C010E000E0F601E00F79
:10153000F11F849164E670E00E94961DEC01892BF6
:1015400029F40F5F1F4F0E151F0581F70E94191E0A
:10155000CE01DF91CF911F910F91FF90EF90DF901F
:10156000CF90089580914C0690914D06911103C043
:1015700091E089270895882369F062E070E08BE5A7
:1015800098E00E94820A892B19F080914C060895F8
:1015900010924C0680914C06EBCFCF93C0914C0635
:1015A00080914D068823D1F00E94A806605F784D97
:1015B0008F4F9F4F609348067093490680934A0669
:1015C00090934B06C11108C062E070E089E598E095
:1015D0000E94820A892B29F0C0914C068C2FCF9152
:1015E000089581E080934C06F7CF80935B0670935B
:1015F0005D0660935C0680918306843001F582E08D
:101600008093E9008FEF9091E800815095FD06C02E
:1016100095ED9A95F1F700008111F5CF8091E800E2
:1016200085FF0DC050E040E063E070E08BE596E0A0
:101630000E9459058091E8008E778093E800089514
:10164000BC0184E00C94F50ABC0183E00C94F50A1B
:101650009C0182E08093E9009FEF8091E800915027
:1016600085FD06C085ED8A95F1F700009111F5CF53
:101670008091E80085FF0CC050E040E066E070E03B
:10168000C9010E9459058091E8008E778093E80097
:101690000895CF93DF93EC01809114018823B1F179
:1016A0008091590687FF32C060E282E08093E900B2
:1016B0008FEF9091E800815095FD06C095ED9A95C9
:1016C000F1F700008111F5CF8091E80085FF1BC084
:1016D0008091140170E050E040E0811104C050E0BE
:1016E00040E068E070E0CE010E9459058091E8007A
:1016F0008E778093E80080E2FE01A1E6B6E00190DB
:101700000D928A95E1F7DF91CF91089568E081E02D
:10171000CDCF1F93CF93DF9300D00F92CDB7DEB71D
:10172000182F8091150190914D069923A1F01982EF
:1017300091E89A831B83181761F024E630E043E0B8
:1017400050E0BE016F5F7F4F88E70E94C51D892B67
:1017500049F0809115010F900F900F90DF91CF917C
:101760001F91089510931501F4CFCF93C0918D066A
:101770008091D201C82BC0938C0140E250E062EB13
:1017800071E08CE891E00E94601E892B19F180E2E3
:10179000ECE8F1E0A2EBB1E001900D928A95E1F75F
:1017A000E0915006F09151063097A1F0809114011C
:1017B000882349F08091590687FF05C0C0938D01A9
:1017C00086E080938C010280F381E02D8CE891E02B
:1017D000CF910994CF9108951F93CF93DF93162F44
:1017E0008A3031F481E0DF91CF911F910C94910CFC
:1017F0008D3011F480E0F7CFC0914606D0914706B6
:1018000096E0FE01A0E4B6E001900D929A95E1F712
:10181000803EA8F186E0FE0111928A95E9F7C09119
:101820004606D0914706111136C046E050E0BE0191
:1018300080E496E00E94601E9E0120543240892B75
:10184000A9F52A5F3F4F40913D02642F70E0C90126
:101850000E941D1E481B463010F4240F311D211517
:1018600074E0370710F030E020E0205C3D4F30930B
:10187000470620934606DF91CF911F910895F6E029
:101880008F9FB0011124675E7C4F46E050E0CE018F
:101890000E94571EC4CF9E012A5F3F4FFE012E17A4
:1018A0003F0719F2808180958193F9CFC90146E005
:1018B000969587954A95E1F741E050E0BA0102C05C
:1018C000660F771F8A95E2F7CB0160913E02709117
:1018D0003F02862B972BB9016B5F7F4FE6E0769531
:1018E0006795EA95E1F702C0440F551F6A95E2F744
:1018F000842B952B90933F0280933E02A2CF1F939F
:10190000CF93DF93EC01162FFE018491811104C067
:10191000DF91CF911F910895612F0E94EC0B2196CA
:10192000F3CFCF93382FE0914606F0914706E0546D
:10193000F24020913D02622F70E0CF010E941D1EF7
:10194000281B822F332369F066E00E94311EC82FC6
:10195000C15010F4CF91089560E080E20E94EC0B3A
:10196000F7CF9F01280F311D2115344018F080E07A
:10197000F0E0E0E08E0F9F2F911D805C9D4F9093D3
:10198000470680934606E6CF2F923F924F925F9292
:101990006F927F928F929F92AF92BF92CF92DF927F
:1019A000EF92FF920F931F93CF93DF9300D0CDB7A9
:1019B000DEB72C013B011A013A83298361E08EE0F6
:1019C0000E94160760E0C2010E947F0C63E080E085
:1019D0000E94160760E0C3010E947F0C63E087E06D
:1019E0000E94160760E0C1010E947F0C63E08EE058
:1019F0000E94160760E089819A810E947F0C65E051
:101A000080E00E94160760E0C8010E947F0C65E03C
:101A100087E00E94160760E0C7010E947F0C65E026
:101A20008EE00E94160760E0C6010E947F0C67E00E
:101A300080E00E94160760E0C5010E947F0C67E00D
:101A400087E00E94160760E0C4010E947F0C67E0F7
:101A50008EE00E94160760E08F89988D0E947F0CAF
:101A600011E0612F8DE00E94160760E08CE10E947A
:101A7000EC0B1F5F1830E9F510E087E0782E143189
:101A800039F0812F672D0E94311E0AE1963009F04E
:101A90000EE162E0812F0E94160760E0802F0E9415
:101AA000EC0B64E0812F0E94160760E0802F0E94FB
:101AB000EC0B66E0812F0E94160760E0802F0E94E9
:101AC000EC0B1F5F1531D9F60F900F90DF91CF917E
:101AD0001F910F91FF90EF90DF90CF90BF90AF904C
:101AE0009F908F907F906F905F904F903F902F903E
:101AF0000895612F86E00E94160760E08CE10E9445
:101B0000EC0BAFCFE0E4F2E080E094E0DF019C0179
:101B10001D9221503040E1F7F0934706E0934606CE
:101B20008FEF9FEF90933F0280933E02089569EEFE
:101B30007EEF90E080E00E94991E60E082E090E0FD
:101B40000E947B1E60E083E090E00E947B1E10926A
:101B5000D30160E084E090E00E947B1E60E082E2BE
:101B600090E00E947B1E60E085E090E00E947B1E7A
:101B700060E086E090E00E947B1E6FEF87E090E0DF
:101B80000E947B1E40E050E0BA0188E090E00E9495
:101B90008D1E60E08DE090E00E947B1E40E050E0F2
:101BA000BA0188E190E00E948D1E60E087E190E03C
:101BB0000E947B1E40E050E0BA018CE190E00E9460
:101BC0008D1E70E060E080E290E00E94991E40E08F
:101BD00050E0BA0188E190E00E948D1E40E050E0A4
:101BE000BA018FE090E00E948D1E40E050E0BA0103
:101BF00083E190E00C948D1E1F920F920FB60F920E
:101C000011242F933F934F935F936F937F938F9301
:101C10009F93AF93BF93EF93FF938091E10082FF77
:101C200009C08091E20082FF05C08091E1008B7FB6
:101C30008093E1008091DA0080FF24C08091D80079
:101C400080FF20C08091DA008E7F8093DA0080913F
:101C5000D90080FF9DC080E189BD82E189BD09B4C2
:101C600000FEFDCF81E08093830680915E068111A6
:101C700009C00E9409050E94D4058091E200846099
:101C80008093E2008091E10080FF17C08091E20024
:101C900080FF13C08091E2008E7F8093E2008091EC
:101CA000E20080618093E2008091D800806280939E
:101CB000D80019BC85E0809383068091E10084FF01
:101CC0002BC08091E20084FF27C080E189BD82E1C2
:101CD00089BD89B5982F917080FFFBCF8091D80086
:101CE0008F7D8093D8008091E1008F7E8093E1000A
:101CF0008091E2008F7E8093E2008091E20081601B
:101D00008093E20080918406882309F447C084E030
:101D100080938306809183068091E10083FF27C032
:101D20008091E20083FF23C08091E100877F809350
:101D3000E10082E080938306109284068091E100A6
:101D40008E7F8093E1008091E2008E7F8093E2009D
:101D50008091E20080618093E20042E060E080E0F8
:101D60000E94A2058091F00088608093F000FF91AE
:101D7000EF91BF91AF919F918F917F916F915F9103
:101D80004F913F912F910F900FBE0F901F9018957C
:101D900019BC1092830610925E0674CF8091E30006
:101DA00087FD93E090938306B5CF78941F921FB67A
:101DB0001F9211248F939F93AF93BF9380915506E9
:101DC00090915606A0915706B09158060196A11D14
:101DD000B11D8093550690935606A0935706B09375
:101DE0005806BF91AF919F918F911F901FBE1F907A
:101DF00018959C014FB7F89480915506909156061E
:101E0000A0915706B09158064FBF821B930B0895BF
:101E10002FB7F8948091550690915606A0915706D9
:101E2000B09158062FBF08950E94080F9C01909111
:101E3000390280913A02982B21F030933602209398
:101E4000350290913B0280913C02982B21F0309317
:101E5000340220933302E0915006F09151063097FE
:101E600049F082E0809337020480F581E02D87E31A
:101E700092E00994089590E080E00E94F40690E0DA
:101E800080E00E94DE061092D2010E94B50B86E02F
:101E9000E7E3F2E0DF011D928A95E9F71092310243
:101EA00010923002109232020C94140F8093EA01C7
:101EB0000C943B0F90918F069330E1F420918D06A6
:101EC00024FF0CC090911501882331F084E1890F23
:101ED0000E94890B80E008958CEEF9CF25FF0AC09F
:101EE00090918E06882321F09F5F90938E06F2CF0B
:101EF0009150FBCF882399F09F5F943018F4909312
:101F00008F0603C083E080938F0690918F0681E057
:101F100001C0880F9A95EAF70E94560FDBCF9150C7
:101F2000EECF8093D3010C943B0F80911401EEE827
:101F3000F1E0882359F08091590687FF07C08EE1B0
:101F4000DF011D928A95E9F70C943B0F86E0F8CFEC
:101F50001F93CF93DF93CDB7DEB7AA970FB6F89450
:101F6000DEBF0FBECDBF85E896E02091F100FC01F9
:101F70002193CF01F6E08D389F07B9F7809186064F
:101F8000833009F470C0B8F4813009F447C082305E
:101F900009F4B3C08091E80083FF80C28091850678
:101FA000909186069A3008F079C2E92FF0E0EF545C
:101FB000F14E0C94511E8A3009F48EC08B3009F416
:101FC0006FC0893039F780918506813219F7809189
:101FD000890690918A060297E8F68091E800877F4B
:101FE0008093E8008091E80082FF38C09091F30070
:101FF0008091F200029731F48091F100813011F06C
:10200000863021F48091F100809360068091E80091
:102010008B778093E8000E948305BCCF8091850672
:10202000813A09F0B7CF8091E800877F8093E8007C
:102030008091890690918A06892B61F460E281E69D
:1020400096E070E00E9435068091E8008B778093DF
:10205000E800A0CF60E090E080E0F3CF80918306BD
:102060008111C0CF97CF80918506813A09F092CF38
:102070008091890690918A06892B09F08BCF8091F7
:10208000E800877F8093E8008091E80080FFFCCF24
:10209000809114018093F1008091E8008E77B9CF90
:1020A00080918506813209F075CF809189069091E3
:1020B0008A06892B09F06ECF8091E800877F809394
:1020C000E8000E9483058091870680931401109296
:1020D0008D060E94950F5ECF80918506813209F0B2
:1020E00059CF8091E800877F8093E8000E948305A4
:1020F0008091880680935F064DCF80918506813A56
:1021000009F048CF8091E800877F8093E8008091B4
:10211000E80080FFFCCF80915F06BCCF803899F04B
:10212000823809F0BBC1809189068F70873008F032
:10213000B5C18093E9008091EB0085FB882780F989
:102140001092E90006C0809181069091820691115B
:1021500082609091E800977F9093E8008093F1006F
:102160001092F1008091E8008E7794C1882309F4E1
:1021700082C1823009F092C180918706811185C1A8
:10218000809189068F702FEF280F263008F086C1C6
:102190008093E9002091EB0020FF77C1933031F468
:1021A0008091EB0080628093EB006FC19091EB0017
:1021B00090619093EB0021E030E001C0220F8A95FE
:1021C000EAF72093EA001092EA008091EB00886021
:1021D000EACF811163C1109187061F778091E300D8
:1021E0008078812B8093E3008091E800877F809343
:1021F000E8000E9483058091E80080FFFCCF809179
:10220000E30080688093E30082E0111183E0809313
:10221000830644C18058823008F040C1809187060F
:10222000909188068C3D23E09207A1F583E08A8394
:102230008AE289834FB7F894DE01139620E03EE0EE
:1022400051E2E32FF0E050935700E49120FF03C0E8
:10225000E295EF703F5FEF708E2F90E0EA30C0F0B4
:10226000C7968D939D932F5F243159F74FBF80916F
:10227000E800877F8093E8006AE270E0CE01019673
:102280000E9435068091E8008B778093E80006C1B4
:10229000C096E7CF4091890650918A06292F3327AF
:1022A0002330310509F444C078F52130310509F4B3
:1022B0006FC08BE390E0E3E5F9E02230310509F0EF
:1022C000EDC02091E800277F2093E80020918B0645
:1022D00030918C068217930708F49C0140E0211589
:1022E000310509F064C0411162C08091E80082FDAF
:1022F000C9CF80918306882329F2853019F2809115
:10230000E80083FFF2CFBECF21323105A9F122329E
:10231000310509F0C3C04115510509F443C04130EE
:10232000510509F0BBC086EB90E0EDE5F8E0C9CFC0
:10233000992781309105C1F0009759F0029709F073
:10234000ADC0E0EAF9E0E4918E2F90E0E0EAF9E038
:1023500007C0E0EDF9E0E4918E2F90E0E0EDF9E0C8
:10236000009709F49BC0ADCFEAEBF9E0E4918E2F22
:1023700090E0EAEBF9E0F4CF4115510571F04130FE
:10238000510509F08BC089E090E0EEE7F9E099CFC4
:1023900082E190E0EEE8F9E094CF89E090E0E5E6B4
:1023A000F9E08FCF80E490E0E3E1F9E08ACF80911B
:1023B0008306882309F466CF853009F463CF8091C2
:1023C000E80083FD5FCF8091E80082FD8ECF809191
:1023D000E80080FF84CF9091F3008091F2002115F6
:1023E000310519F08830910550F041E0089709F067
:1023F00040E08091E8008E778093E80070CF4491B0
:102400004093F1003196215031090196E8CF803890
:1024100009F044C08091E800877F8093E8008091B4
:1024200084068093F1009ECE811138C010918706FA
:102430001230A0F58091E800877F8093E800109328
:1024400084060E948305112311F084E005C0809169
:10245000E30087FDFACF81E08093830642E061ECE0
:1024600081E00E94A20542E261EC82E00E94A205A6
:102470008091830613C080918706813079F481E0D2
:10248000933009F080E0809382061092E9008091F9
:10249000E800877F8093E8000E9483058091E80030
:1024A00083FF0AC08091E800877F8093E8008091D5
:1024B000EB0080628093EB00AA960FB6F894DEBF23
:1024C0000FBECDBFDF91CF911F9108951F920F9244
:1024D0000FB60F9211242F933F934F935F936F93F7
:1024E0007F938F939F93AF93BF93CF93DF93EF939C
:1024F000FF93D091E900DF708091EC00C82FC1708C
:1025000080FDC0E81092E9008091F000877F809301
:10251000F00078940E94A80F1092E9008091F000DA
:1025200088608093F000CD2BCF70C093E900FF91BD
:10253000EF91DF91CF91BF91AF919F918F917F915B
:102540006F915F914F913F912F910F900FBE0F9020
:102550001F9018958823B1F19CEF980F913A38F4A9
:10256000682F8CE891E00E94B4060C94B50B90E2C1
:10257000980F983088F4877021E030E0A90102C0FC
:10258000440F551F8A95E2F7CA01809590918D06F8
:10259000892380938D06E9CF9BE5980F933020F433
:1025A00090E080E00C94F40698E5980F973120F4C1
:1025B00090E080E00C94DE068D3E20F00E942D0716
:1025C0000C94140F0895CF93C82F882309F49CC04E
:1025D0008CEF8C0F813A08F064C08091140188233D
:1025E000D1F18091590687FF36C0EC2FE695E6952C
:1025F000E695F0E0E457FE4F828190E04C2F477063
:1026000021E030E002C0220F331F4A95E2F7822317
:102610009323892B61F06C2F8CE891E00E94B40623
:102620000E94B50B22C08091590687FF22C0EC2F73
:10263000E695E695E695F0E0E457FE4FC77021E099
:1026400030E001C0220FCA95EAF78281822B828393
:10265000CF910C94B50BEEE8F1E084E991E0219183
:10266000C217C9F28E179F07D1F78091140181110B
:10267000DACFAEE8B1E0EFEF80E09D91C91741F30A
:10268000EF3F19F4911101C0E82F8F5F8630A9F751
:10269000EF3FF1F20E2E000CFF0BE457FE4FC2830A
:1026A000D7CF80E28C0F883068F4C77021E030E02B
:1026B00001C0220FCA95EAF780918D06822B809384
:1026C0008D06C6CFEBE5EC0FE33040F4F0E0EE5CB6
:1026D000FE4F808190E0CF910C94F406E8E5EC0F7A
:1026E000E73150F4F0E0EE0FFF1FEB5CFE4F80810E
:1026F0009181CF910C94DE06CD3E30F08C2F0E945C
:10270000E807CF910C94140FCF9108951F93CF93A6
:10271000DF93182FD0E0C0E0893311F4C0E5D0E09A
:10272000812F0E94E312209731F4812FDF91CF9106
:102730001F910C94AA128FE99FE00197F1F700C056
:1027400000002197F0CFDF92EF92FF920F931F933B
:10275000CF93DF93E82FF0E0E051FF4FD490282F84
:1027600026952695269530E0F901E052FF4F049119
:10277000877010E0082E02C0159507950A94E2F7BD
:1027800001701127F901E053FF4FE490F12C082E5E
:1027900002C0F594E7940A94E2F791E0E922FF245D
:1027A000F901E054FF4FC491D0E002C0D595C79520
:1027B0008A95E2F7C170DD270115110519F081EE48
:1027C0000E94E312E114F10419F086EE0E94E31274
:1027D0008D2D0E948613EF2819F086EE0E94AA1212
:1027E000012B19F081EE0E94AA12CD2B51F08CE240
:1027F000DF91CF911F910F91FF90EF90DF900C949C
:102800008613DF91CF911F910F91FF90EF90DF9092
:102810000895FF920F931F93CF93DF938C018AE06B
:10282000F82EF8018491882309F44BC0813009F017
:1028300044C0E8012196FE018491813049F421963B
:10284000FE0184910E9486138E010F5F1F4FE9CF16
:10285000823039F4E8012296FE0184910E94E3124D
:10286000F3CF833039F4E8012296FE0184910E946F
:10287000AA12EACF843041F7E8012296FE012491A2
:1028800090E080E0FE0131962053330B2A30310571
:1028900048F00197C8F2EFE9FFE03197F1F700C087
:1028A0000000F7CFF89EA001F99E500D1124C90138
:1028B000840F951F2491EF01E5CF0E94A313E80137
:1028C000C3CFDF91CF911F910F91FF9008951F9378
:1028D000CF93DF93EC0186EB90E00E9409141AE09D
:1028E0008881882309F43EC08130C9F599818A81A5
:1028F000913029F422960E9486132196F1CF9230CE
:1029000021F422960E94E312F8CF933021F422960C
:102910000E94AA12F2CF943011F02196EECF2296A7
:1029200030E020E0AE014F5F5F4F8053990B8A305B
:10293000910550F02150310900F38FE99FE0019794
:10294000F1F700C00000F6CF129FB001139F700D89
:1029500011249C01260F371F8981EA01E3CF0E94D1
:10296000A313CBCF8CEA90E0DF91CF911F910C9411
:1029700009149F92AF92BF92CF92DF92EF92FF9293
:102980000F931F93CF93DF9300D000D0CDB7DEB766
:1029900019821A821B821C8283E6E82E81E0F82EBF
:1029A00010E000E0CC24C394D12C2AE6A22E21E032
:1029B000B22EF70181917F018F3F09F445C0F89451
:1029C000E82FE295EF70F0E021A18F70A60102C020
:1029D000440F551F8A95E2F7CA01922F982B91A3B5
:1029E00092A18095892382A3789400C0E7E6F1E064
:1029F000912C31E021912F3F09F46BC0A22FA295B9
:102A0000AF70B0E090968C9190E02F7002C09595D9
:102A100087952A95E2F780FD5CC0832F982A330FB3
:102A2000AE16BF0639F7F701319780818F3F11F05D
:102A30000E94440850EA5A95F1F7E1E0F0E0EC0F0B
:102A4000FD1FE00FF11F90820F5F1F4F0430110533
:102A500009F0AFCF44E050E0BE016F5F7F4F8AEDD9
:102A600091E00E94601E11E0009709F410E0892BAC
:102A700091F189819A81AB81BC818093DA01909335
:102A8000DB01A093DC01B093DD0181E08093D601EE
:102A90000E94080F9093D5018093D4018091D401B6
:102AA0009091D5010E94F90E0597C8F08091DA0146
:102AB0008093DE018091DB018093DF018091DC0156
:102AC0008093E0018091DD018093E1011092D601B5
:102AD00006C080E0A3CF8091D6018111DFCF809125
:102AE000D901882389F08091D7019091D8010E9463
:102AF000F90E853F914040F080910C0191E08927CB
:102B000080930C011092D901812F0F900F900F909C
:102B10000F90DF91CF911F910F91FF90EF90DF9079
:102B2000CF90BF90AF909F9008958F929F92AF9259
:102B3000BF92CF92DF92EF92FF920F931F93CF93AA
:102B4000DF93CDB7DEB72A970FB6F894DEBF0FBE7E
:102B5000CDBF4E835F83162F688779878A8761117F
:102B60001092D20189859A85892B39F0DE800F81F8
:102B7000802F8D218F3F09F04DC22A960FB6F89411
:102B8000DEBF0FBECDBFDF91CF911F910F91FF90A0
:102B9000EF90DF90CF90BF90AF909F908F9008956F
:102BA0000E94DA09C82E682F89819A810E94440AFE
:102BB000ED2CF12C23E0029FE00CF11C1124F70115
:102BC0003CE0C39EE00DF11D1124EE0FFF1FE65403
:102BD000FE4F859194918D3A2DE5920709F4EFC04F
:102BE000F0F5893A2DE5920709F4C6C058F5873A01
:102BF0002DE5920709F45AC008F0B7C0853E91054B
:102C000009F4ECC0112309F4AAC081153CE593072F
:102C100009F4E9C08F3D9C4509F058C02A960FB6CB
:102C2000F894DEBF0FBECDBFDF91CF911F910F9102
:102C3000FF90EF90DF90CF90BF90AF909F908F90DC
:102C40000C94970D8B3A2DE5920709F49FC008F478
:102C500098C08AE991E0112309F481C08AC0813BC0
:102C60002DE5920709F49CC068F48F3A2DE5920790
:102C700009F4AFC008F4A8C0112309F470C080E2C1
:102C800091E088C0833B2DE5920709F493C008F4D6
:102C90008CC0843B2DE5920709F0B4CF86E191E02A
:102CA000112309F45CC00E94671410C0112309F4B9
:102CB00054C08091D901811109C081E08093D9016C
:102CC0000E94080F9093D8018093D701112309F433
:102CD00046C08D2D902F0E94DA09C82E682F8D2DA9
:102CE000902F0E94440AF7012CE0C29EE00DF11DD6
:102CF0001124EE0FFF1FE654FE4F859194910E9420
:102D00005B08982E882EC92EC2943FE0C32234E07F
:102D1000C31609F4C9C03C1508F474C081E08C15D1
:102D200008F084C02C2D2850330B2230310510F4CC
:102D30000E940A07D9820A8389819A810E941C0A0B
:102D4000F7013CE0839FE00DF11D1124EE0FFF1F02
:102D5000E654FE4F8591949110CF1092D9018D2D9C
:102D6000902F0E941C0AC82EBECF82EB91E0112347
:102D7000B1F30E940914AACF8AEA91E0112379F3F2
:102D8000F8CF82EA91E0112351F3F3CF8BE191E088
:102D9000112329F30E94671484E00E94560F96CFF6
:102DA00084E291E01123D9F27ECF88E291E01123F1
:102DB000B1F279CF112399F28DE291E074CF8CE8D2
:102DC00091E0112361F2D5CF8EE791E0112339F222
:102DD000D0CF112321F280E791E0CBCF111176CF34
:102DE00010928E06BCCF10928D060E94950F3FEF79
:102DF00084E39CE0315080409040E1F700C0000047
:102E00000E94970628E0C21609F46BC039E0C31689
:102E100009F4D8C085E0C81285CF892D112309F4A3
:102E20005DC00E94E8070E94140F7CCF292F2F70ED
:102E3000B22E907F19F0B29490EFB922892D112310
:102E4000C9F0BB2069F090E2990D983010F0911014
:102E50000BC080918D06B82AB0928D060E94B50BEA
:102E6000892D0E94E3125ECF8091D201B82AB092E0
:102E7000D201F4CF0E94AA12BB2009F453CFB09420
:102E800080E2890D883010F0811008C080918D0695
:102E9000B822B0928D060E94B50B44CF8091D2012A
:102EA000B822B092D201F7CF892F8695869583708C
:102EB00061F0813009F036CF892D9370111102C075
:102EC00090E080E00E94DE062DCF892D93701111D5
:102ED00002C090E080E00E94F40624CF0E942D07FB
:102EE000A2CF892F8370A1F511111CCF692D629596
:102EF00066956770660F660F492D4F70062E01C0EC
:102F0000440F0A94EAF7292D207194FE07C02FE0A0
:102F100030E001C0220F6A95EAF7209596959695C4
:102F20009370923081F0822F842B933030F4809113
:102F3000D301913029F0242B82230E94910FF2CEED
:102F4000842B822BFACF242B8091D3018227F5CFBB
:102F50008695112311F0892F8170882309F4E2CE20
:102F6000692D629566956770660F660F492D4F70E3
:102F7000062E01C0440F0A94EAF7292D207194FE11
:102F800007C02FE030E001C0220F6A95EAF72095D4
:102F9000969596959370923081F0822F842B933082
:102FA00030F48091EA01913029F0242B82230E9491
:102FB000560FB8CE842B822BFACF242B8091EA01B6
:102FC0008227F5CF9F7021E030E0590101C0AA0CA3
:102FD0009A95EAF7112371F08091EA018A290E94FB
:102FE000560F992009F49ECE80918D0689298093F1
:102FF0008D0651CF992049F0892D809590918D06AD
:10300000892380938D060E94B50BA0948091EA01DC
:103010008A21CDCFD9820A8389819A811111C0CDAD
:103020000E941C0AC82EC4CD1F921FB61F921124E5
:103030008F939F93AF93BF9380915406811113C0D8
:103040008091550690915606A0915706B09158066A
:103050004196A11DB11D8093550690935606A093ED
:103060005706B0935806BF91AF919F918F911F90D3
:103070001FBE1F901895CDB7DEB765970FB6F894B1
:10308000DEBF0FBECDBF84B7877F84BF0FB6F89475
:10309000A895809160008861809360001092600024
:1030A0000FBE80E890E00FB6F89480936100909393
:1030B00061000FBE85B7806885BF85B7806885BF12
:1030C00082E498E090938B0180938A010E94090525
:1030D0000E94D4058091E20084608093E20078949D
:1030E000809183068823A1F01091E9001F709091D0
:1030F000EC00892F817090FD80E8182B1092E90078
:103100008091E80083FD0E94A80F1F701093E900D2
:1031100082E084BD93E095BD9AEF97BD80936E00E9
:1031200086E30E94440882E30E94440883E30E94ED
:10313000440881E30E94440886EC0E94440884E32A
:103140000E94440885E30E94440884E0EEEDF1E02B
:10315000DF01282F1D922A95E9F7EAEDF1E0DF0162
:103160001D928A95E9F790E080E00E94751E893EE5
:103170009E4F11F00E94970D82E090E00E946D1E1C
:103180008093E20184E090E00E946D1E182F82E29D
:1031900090E00E946D1E982F812F90935A06809385
:1031A00059060E94B914EFEFF6E721E0E150F04034
:1031B0002040E1F700C000000E94B9148091DE01B8
:1031C00080FF08C06FEF7FEF90E080E00E94991EC3
:1031D0000E94970683E090E00E946D1E0E94910F6E
:1031E00010922B0280E880933D020E94161D6BE036
:1031F00070E08DE292E00E94820A892B59F580915D
:103200002B0263E070E081FD13C18AE292E00E942C
:10321000820A892BF9F46DE070E08AE192E00E9465
:10322000820A892BB9F40E94A806605F784D8F4FFF
:103230009F4F609348067093490680934A06909387
:103240004B060E94820D81E080934D0680934C06D0
:1032500010922C0286988E9A87988F9A8FE891E028
:103260000197F1F700C000008FB186FB882780F935
:103270002FB130E0220F232F221F330B92E0232B9C
:1032800009F490E0892B8093E90180E091E090932C
:103290005106809350068EED91E034E0380F3B8B61
:1032A0008091830640E4F42E00E112E1853009F4B8
:1032B000F9C00E94B914682E81110E94A806AEEDD3
:1032C000B1E0E3EEF1E010E000E0202F9D9181916C
:1032D000891709F4F9C08927382F3170F32E80FD42
:1032E000EDC081FDEDC082FFEFC082E034E0F32E3F
:1032F0008F8328879F2181E009F480E089870E94DD
:10330000080F8160782F9B878A874F815885698550
:103310008B850E949515F801ED51FE4F8081F826AE
:10332000F082E091E901EE0FEE0FE093E9018FB139
:1033300086FB882780F9898B1A8A8FB190E0880FE5
:10334000892F881F990B009711F082E090E0A989DE
:10335000BA898A2BE82BE093E901EF70F0E0E65997
:10336000FE4F80819091E801890F8093E801712CD4
:10337000843054F08091E7018F5F8093E70180E013
:103380000E945A0F772473948091E8018D3F54F482
:103390008091E70181508093E70181E00E945A0FFC
:1033A000772473948091E801082E000C990B64E057
:1033B00070E00E943D1E8093E80171100E94A806F3
:1033C00080914D06882309F4E8C080912D029091E8
:1033D0002E020E94F90EC29708F4B8C00E94080F8E
:1033E00090932E0280932D0260E080E00E941607E9
:1033F0000E94820D80910C01882309F4A7C080915E
:10340000EA010E94710A813009F49EC1882309F4FF
:1034100072C0823009F4BCC1833009F4DDC161E0BF
:1034200088E392E00E947F0C81E00E94910C8AC0A8
:1034300087E292E0ECCE80918306843029F10E94ED
:10344000B20A1092540688E190E00FB6F894A8955D
:10345000809360000FBEF092600083B7817F84602C
:1034600083BF83B7816083BF7894889583B78E7F4D
:1034700083BF0FB6F894A89580916000886180930F
:103480006000109260000FBE80918206882351F088
:103490000E94B914EEEDF1E081918111A5C29B89E2
:1034A0009E13FACF80918306853009F4C4CF109221
:1034B0008D060E94950F0E940A07FBCE80E018CF70
:1034C00081E0B2E0FB2E14CF0F5F1F4F04301105D7
:1034D00009F0FBCE8FEF8C878D871E860E94080F28
:1034E0008160782F988B8F874C855D856E85888964
:1034F0000E94951516CF61E081E193E00E947F0C58
:1035000089ED92E09F938F937FED872E72E0972E47
:10351000E4EEAE2EE2E0BE2EF8EECF2EF2E0DF2E8D
:10352000ADEEEA2EA2E0FA2E03EF12E02AEF32E02F
:1035300040E053E064E073E089E093E00E94C40C53
:103540000F900F9080914D06882371F020913E02DC
:1035500030913F022115310539F080912C0261E054
:1035600070E0882309F45DC180914C068823A9F09E
:103570000E94A806009148061091490620914A062B
:1035800030914B06601B710B820B930B6F3F7F4F8B
:103590008F4F9F4710F40E94B20A611001C0711052
:1035A0000E94CD0A86E0E7E3F2E0DE011196019089
:1035B0000D928A95E1F7F0903902E0903A0210916D
:1035C0003B0200913C021092390210923A02109292
:1035D0003B0210923C028F2D8E2909F448C0809145
:1035E0003502909136020E94F90E9C0190913102B1
:1035F000992309F416C225313105C8F19F3F19F00E
:103600009F5F90933102FF2059F00E94C8079FEFFF
:103610001F140CF491E0899F802D112480933902AE
:10362000EE2059F00E94C8079FEF1E140CF491E0A1
:10363000899F802D112480933A02309139023323DF
:10364000B1F020913A02222391F045EB3403C001FE
:103650001124992309F4B8C19093390245EB24034E
:1036600090011124332309F4B3C130933A02812F1E
:10367000802B09F448C080913302909134020E945B
:10368000F90E9C0190913002992309F4C5C12135AE
:103690003105C8F19F3F19F09F5F909330021123CD
:1036A00059F00E94A6079FEF11160CF491E0899F34
:1036B000802D112480933B02002359F00E94A6071D
:1036C0009FEF10160CF491E0899F802D11248093B8
:1036D0003C0230913B023323B1F020913C02222383
:1036E00091F045EB3403C0011124992309F474C10E
:1036F00090933B0245EB240390011124332309F4FA
:103700006FC130933C028091390290913A02892B2B
:1037100090913B02892B90913C02892B11F00E94E1
:10372000140F86E0FE013196A7E3B2E001900D92FE
:103730008A95E1F70E940A0790912F02891709F4F0
:10374000AFCD80932F02ACCD61E081ED92E00E947D
:103750007F0C87EB92E09F938F9339EB832E32E0BF
:10376000932E4BEBA42E42E0B42E5DEBC52E52E01F
:10377000D52E6FEBE62E62E0F62E01EC12E023EC84
:1037800032E045EC52E067EC72E089EC92E0D6CE94
:1037900061E081EB92E00E947F0C8BE792E09F93C7
:1037A0008F9301E8802E02E0902E86E8A82E82E01A
:1037B000B82E9AE8C92E92E0D92E22E9E22E22E014
:1037C000F22E06E912E02BE932E042EA52E066EA24
:1037D00072E089EA92E0B2CE61E086E792E00E9470
:1037E0007F0C82E492E09F938F93F3E48F2EF2E0BC
:1037F0009F2EAAE4AA2EA2E0BA2EB1E5CB2EB2E00B
:10380000DB2E12E5E12E12E0F12E0BE512E024E6AC
:1038100032E045E652E06BE672E081E792E08ECE60
:103820008F5F082F10E02B01082E02C0440C551C9E
:103830000A94E2F7A90144215521452B89F390917F
:103840002B0290FD51C0980136952795206B20934F
:103850000E0192E090930F018295880F880F80747B
:1038600090E00296E4E095958795EA95E1F780610E
:103870008093100183EE8093110180931201809355
:10388000130124E630E047E050E06DE071E088E7A6
:103890000E94C51D892B09F067CEA80166E0440F80
:1038A000551F6A95E1F780912B0280FD29C0405C8D
:1038B0005D4F04E610E020E430E060E488E70E9419
:1038C000EC1D892B09F050CE0E94CD0AC2018095D3
:1038D000909540903E0250903F02482259225092CB
:1038E0003F0240923E0240CE880F880F880F80939F
:1038F0000F0110921201895F8093100187E0BFCF02
:10390000EBEEF1E080E4DF011D928A95E9F7E2E851
:10391000F1E0FD8BEC8B0AE711E037E0C32EBB240E
:10392000B394AC89BD892D91BD8BAC8BF8012190EE
:103930008F01240E352E311CC101805C9D4F1C016E
:10394000E22FF0E0E551FE4F30E020E09C2C921A8F
:10395000DB2C022E01C0DD0C0A94EAF7710190E025
:10396000D7018D917D018D21692D691B6770A62E70
:10397000062E000C770BB82F01C0BB0FAA94EAF7F4
:10398000AB2E7195619571096770772701C0869597
:103990006A95EAF7A82A8081A82AA0829F5F9830BA
:1039A000F9F62F5F3F4F31962830310579F6EC89D3
:1039B000FD89EA58F14009F0B4CF04E610E020E4B4
:1039C00030E04BEE51E079CF81E08093390246CE72
:1039D00081E080933A024BCE81E080933B028ACE15
:1039E00081E080933C028FCE09BD19BD09B400FE71
:1039F000FDCF8091D8008F7D8093D8008091E0002A
:103A000082608093E0008091E00081FDFCCF109205
:103A10008D060E94950F46CD2B30310508F03CCE27
:103A200072CE2B30310508F0EBCD21CE1092B900CB
:103A30008CE08093B80008959F92AF92BF92CF928E
:103A4000DF92EF92FF920F931F93CF93DF93B82EE5
:103A5000EB010E94080F6C01EE24E394F12CC431B9
:103A6000D10560F025E0E22EF12CCF3FDC0731F0EC
:103A7000CE0164E170E00E941D1E7B0184EAA82E45
:103A800094E8992E1092BC00A092BC000E94080FEE
:103A90008C018091BC0087FF0DC08091B900887FA8
:103AA000883039F18091B900887F803111F10FEFB2
:103AB0001FEF09C00E94080F801B910B8E159F05F8
:103AC00040F30EEF1FEFCF3FDC07E1F2C6010E948B
:103AD000F90E8C179D07B0F2C801DF91CF911F91AD
:103AE0000F91FF90EF90DF90CF90BF90AF909F909D
:103AF0000895B092BB009092BC000E94080F8C0108
:103B00008091BC0087FF0AC08091B900887F88310E
:103B100011F0803461F610E000E0DECF0E94080F63
:103B2000801B910B8E159F0558F3CBCF0F931F93DE
:103B3000CF93DF93EB018093BB0084E88093BC00BC
:103B40000E94080F8C018091BC0087FF11C020915A
:103B5000B900287F81E090E0283211F490E080E005
:103B6000919581959109DF91CF911F910F910895C2
:103B7000CF3FDC0741F30E94080F801B910B8C178D
:103B80009D0708F38EEF9FEFEECFCF92DF92EF927B
:103B9000FF920F931F93CF93DF936B018A017901FB
:103BA000B9010E941C1DE6010C0D1D1DC017D10797
:103BB00061F424E92093BC00DF91CF911F910F9114
:103BC000FF90EF90DF90CF90089597FDF2CFB7016F
:103BD00089910E94961DEACFCF92DF92EF92FF92D9
:103BE0000F931F93CF93DF93C62F6A017901B8011A
:103BF0000E941C1D97FD0CC0B8018C2F0E94961DC1
:103C0000E601EC0CFD1CCE15DF0511F097FF0CC092
:103C100024E92093BC00DF91CF911F910F91FF9079
:103C2000EF90DF90CF900895B80189910E94961D82
:103C3000EACF84E98093BC000895AA1BBB1B51E125
:103C400007C0AA1FBB1FA617B70710F0A61BB70B0C
:103C5000881F991F5A95A9F780959095BC01CD01B1
:103C60000895991B79E004C0991F961708F0961BD8
:103C7000881F7A95C9F78095089597FB072E16F44B
:103C8000009407D077FD09D00E941D1E07FC05D0C7
:103C90003EF4909581959F4F0895709561957F4F63
:103CA0000895EE0FFF1F0590F491E02D0994FB019C
:103CB000DC0102C005900D9241505040D8F70895A4
:103CC000FB01DC0104C08D910190801921F4415069
:103CD0005040C8F7881B990B0895F999FECF92BD03
:103CE00081BDF89A992780B50895A8E1B0E042E037
:103CF00050E00C94A11E262FF999FECF92BD81BDF4
:103D0000F89A019700B4021639F01FBA20BD0FB619
:103D1000F894FA9AF99A0FBE08950396272F0E94F5
:103D20007C1E0E947B1E252F0E947C1E242F0C943B
:103D30007C1E0196272F0E947C1E0C947B1EDC01AA
:103D4000CB01FC01F999FECF06C0F2BDE1BDF89AA6
:103D5000319600B40D9241505040B8F70895F89450
:103D6000FFCF8E10B6104E12B6104E12E9100A1187
:063D70004E1207121412AE
:103D76009406490B280B240B200B93060100210007
:103D86007F22000701FF7465726D00636F64650032
:103D9600726964006F627300736E69700074617398
:103DA6006B00818283E200E900EA00B500B600B745
:103DB60000CD008301CC008A0192019401210223E7
:103DC6000224022502260227022A02B300B4006F4B
:103DD60000700036323331C6343500FF0100010071
:103DE60000FFFF0000010001FF0000081018202856
:0A3DF600303838302820181008007B
:00000001FF
